{
  "_format": "hh-sol-artifact-1",
  "contractName": "Lottery",
  "sourceName": "contracts/Lottery.sol",
  "abi": [
    {
      "inputs": [],
      "stateMutability": "nonpayable",
      "type": "constructor"
    },
    {
      "inputs": [],
      "name": "BuyTickets",
      "outputs": [],
      "stateMutability": "payable",
      "type": "function"
    },
    {
      "inputs": [],
      "name": "CurrentWinningReward",
      "outputs": [
        {
          "internalType": "uint256",
          "name": "",
          "type": "uint256"
        }
      ],
      "stateMutability": "view",
      "type": "function"
    },
    {
      "inputs": [],
      "name": "Dealer",
      "outputs": [
        {
          "internalType": "address",
          "name": "",
          "type": "address"
        }
      ],
      "stateMutability": "view",
      "type": "function"
    },
    {
      "inputs": [],
      "name": "DealerTotalCommission",
      "outputs": [
        {
          "internalType": "uint256",
          "name": "",
          "type": "uint256"
        }
      ],
      "stateMutability": "view",
      "type": "function"
    },
    {
      "inputs": [],
      "name": "DrawWinnerTicket",
      "outputs": [],
      "stateMutability": "nonpayable",
      "type": "function"
    },
    {
      "inputs": [],
      "name": "IsWinner",
      "outputs": [
        {
          "internalType": "bool",
          "name": "",
          "type": "bool"
        }
      ],
      "stateMutability": "view",
      "type": "function"
    },
    {
      "inputs": [],
      "name": "RefundAll",
      "outputs": [],
      "stateMutability": "nonpayable",
      "type": "function"
    },
    {
      "inputs": [],
      "name": "RemainingTickets",
      "outputs": [
        {
          "internalType": "uint256",
          "name": "",
          "type": "uint256"
        }
      ],
      "stateMutability": "view",
      "type": "function"
    },
    {
      "inputs": [],
      "name": "WithdrawCommission",
      "outputs": [],
      "stateMutability": "nonpayable",
      "type": "function"
    },
    {
      "inputs": [],
      "name": "WithdrawWinnings",
      "outputs": [],
      "stateMutability": "nonpayable",
      "type": "function"
    },
    {
      "inputs": [],
      "name": "checkWinningsAmount",
      "outputs": [
        {
          "internalType": "uint256",
          "name": "",
          "type": "uint256"
        }
      ],
      "stateMutability": "view",
      "type": "function"
    },
    {
      "inputs": [],
      "name": "duration",
      "outputs": [
        {
          "internalType": "uint256",
          "name": "",
          "type": "uint256"
        }
      ],
      "stateMutability": "view",
      "type": "function"
    },
    {
      "inputs": [],
      "name": "expiration",
      "outputs": [
        {
          "internalType": "uint256",
          "name": "",
          "type": "uint256"
        }
      ],
      "stateMutability": "view",
      "type": "function"
    },
    {
      "inputs": [],
      "name": "getTickets",
      "outputs": [
        {
          "internalType": "address[]",
          "name": "",
          "type": "address[]"
        }
      ],
      "stateMutability": "view",
      "type": "function"
    },
    {
      "inputs": [
        {
          "internalType": "address",
          "name": "addr",
          "type": "address"
        }
      ],
      "name": "getWinningsForAddress",
      "outputs": [
        {
          "internalType": "uint256",
          "name": "",
          "type": "uint256"
        }
      ],
      "stateMutability": "view",
      "type": "function"
    },
    {
      "inputs": [],
      "name": "lastWinner",
      "outputs": [
        {
          "internalType": "address",
          "name": "",
          "type": "address"
        }
      ],
      "stateMutability": "view",
      "type": "function"
    },
    {
      "inputs": [],
      "name": "lastWinnerAmount",
      "outputs": [
        {
          "internalType": "uint256",
          "name": "",
          "type": "uint256"
        }
      ],
      "stateMutability": "view",
      "type": "function"
    },
    {
      "inputs": [],
      "name": "maxTickets",
      "outputs": [
        {
          "internalType": "uint256",
          "name": "",
          "type": "uint256"
        }
      ],
      "stateMutability": "view",
      "type": "function"
    },
    {
      "inputs": [],
      "name": "restartDraw",
      "outputs": [],
      "stateMutability": "nonpayable",
      "type": "function"
    },
    {
      "inputs": [],
      "name": "ticketCommission",
      "outputs": [
        {
          "internalType": "uint256",
          "name": "",
          "type": "uint256"
        }
      ],
      "stateMutability": "view",
      "type": "function"
    },
    {
      "inputs": [],
      "name": "ticketPrice",
      "outputs": [
        {
          "internalType": "uint256",
          "name": "",
          "type": "uint256"
        }
      ],
      "stateMutability": "view",
      "type": "function"
    },
    {
      "inputs": [
        {
          "internalType": "uint256",
          "name": "",
          "type": "uint256"
        }
      ],
      "name": "tickets",
      "outputs": [
        {
          "internalType": "address",
          "name": "",
          "type": "address"
        }
      ],
      "stateMutability": "view",
      "type": "function"
    },
    {
      "inputs": [
        {
          "internalType": "address",
          "name": "",
          "type": "address"
        }
      ],
      "name": "winners",
      "outputs": [
        {
          "internalType": "uint256",
          "name": "",
          "type": "uint256"
        }
      ],
      "stateMutability": "view",
      "type": "function"
    }
  ],
  "bytecode": "0x60806040525f6002553480156012575f5ffd5b503360015f6101000a81548173ffffffffffffffffffffffffffffffffffffffff021916908373ffffffffffffffffffffffffffffffffffffffff16021790555061070842605f9190609e565b5f8190555060ca565b5f819050919050565b7f4e487b71000000000000000000000000000000000000000000000000000000005f52601160045260245ffd5b5f60a6826068565b915060af836068565b925082820190508082111560c45760c36071565b5b92915050565b611a62806100d75f395ff3fe60806040526004361061013f575f3560e01c80636bd5450a116100b55780639b8947031161006e5780639b894703146103d5578063a88f4672146103ff578063c6944fa014610415578063dd64e5341461043f578063f26132691461047b578063fe188184146104915761013f565b80636bd5450a146102fb5780636fd803a71461033757806371827b7b1461036157806391d8b14e1461037757806393a563b51461038157806396c85ef3146103ab5761013f565b806335580df21161010757806335580df2146102155780634665096d1461022b5780634788af7c146102555780634ed026221461026b57806350b44712146102955780636032a4f9146102d15761013f565b806306f7f3bf146101435780630789c6071461016d5780630fb5a6b4146101975780631209b1f6146101c1578063173a0615146101eb575b5f5ffd5b34801561014e575f5ffd5b506101576104bb565b60405161016491906111f4565b60405180910390f35b348015610178575f5ffd5b506101816104c1565b60405161018e91906111f4565b60405180910390f35b3480156101a2575f5ffd5b506101ab61050f565b6040516101b891906111f4565b60405180910390f35b3480156101cc575f5ffd5b506101d5610515565b6040516101e291906111f4565b60405180910390f35b3480156101f6575f5ffd5b506101ff61051f565b60405161020c919061124c565b60405180910390f35b348015610220575f5ffd5b50610229610544565b005b348015610236575f5ffd5b5061023f61062c565b60405161024c91906111f4565b60405180910390f35b348015610260575f5ffd5b50610269610631565b005b348015610276575f5ffd5b5061027f6108ed565b60405161028c919061131c565b60405180910390f35b3480156102a0575f5ffd5b506102bb60048036038101906102b6919061136a565b610978565b6040516102c8919061124c565b60405180910390f35b3480156102dc575f5ffd5b506102e56109b3565b6040516102f291906111f4565b60405180910390f35b348015610306575f5ffd5b50610321600480360381019061031c91906113bf565b6109bc565b60405161032e91906111f4565b60405180910390f35b348015610342575f5ffd5b5061034b6109d1565b60405161035891906111f4565b60405180910390f35b34801561036c575f5ffd5b506103756109d7565b005b61037f610aed565b005b34801561038c575f5ffd5b50610395610c4e565b6040516103a291906111f4565b60405180910390f35b3480156103b6575f5ffd5b506103bf610c66565b6040516103cc9190611404565b60405180910390f35b3480156103e0575f5ffd5b506103e9610cac565b6040516103f691906111f4565b60405180910390f35b34801561040a575f5ffd5b50610413610cb1565b005b348015610420575f5ffd5b50610429610e08565b60405161043691906111f4565b60405180910390f35b34801561044a575f5ffd5b50610465600480360381019061046091906113bf565b610e25565b60405161047291906111f4565b60405180910390f35b348015610486575f5ffd5b5061048f610e6b565b005b34801561049c575f5ffd5b506104a5610f63565b6040516104b2919061124c565b60405180910390f35b60045481565b5f5f3390505f60055f8373ffffffffffffffffffffffffffffffffffffffff1673ffffffffffffffffffffffffffffffffffffffff1681526020019081526020015f20549050809250505090565b61070881565b6509184e72a00081565b60015f9054906101000a900473ffffffffffffffffffffffffffffffffffffffff1681565b60015f9054906101000a900473ffffffffffffffffffffffffffffffffffffffff1673ffffffffffffffffffffffffffffffffffffffff163373ffffffffffffffffffffffffffffffffffffffff16146105d3576040517f08c379a00000000000000000000000000000000000000000000000000000000081526004016105ca90611477565b60405180910390fd5b5f3390505f60025490505f6002819055508173ffffffffffffffffffffffffffffffffffffffff166108fc8290811502906040515f60405180830381858888f19350505050158015610627573d5f5f3e3d5ffd5b505050565b5f5481565b60015f9054906101000a900473ffffffffffffffffffffffffffffffffffffffff1673ffffffffffffffffffffffffffffffffffffffff163373ffffffffffffffffffffffffffffffffffffffff16146106c0576040517f08c379a00000000000000000000000000000000000000000000000000000000081526004016106b790611477565b60405180910390fd5b5f60068054905011610707576040517f08c379a00000000000000000000000000000000000000000000000000000000081526004016106fe906114df565b60405180910390fd5b5f60068054905043610719919061152a565b4090505f42826040516020016107309291906115a6565b604051602081830303815290604052805190602001205f1c90505f6006805490508261075c91906115fe565b90505f600682815481106107735761077261162e565b5b905f5260205f20015f9054906101000a900473ffffffffffffffffffffffffffffffffffffffff1690508060035f6101000a81548173ffffffffffffffffffffffffffffffffffffffff021916908373ffffffffffffffffffffffffffffffffffffffff16021790555064e8d4a510006509184e72a0006107f4919061152a565b600680549050610804919061165b565b60055f8373ffffffffffffffffffffffffffffffffffffffff1673ffffffffffffffffffffffffffffffffffffffff1681526020019081526020015f205f82825461084f919061169c565b9250508190555060055f8273ffffffffffffffffffffffffffffffffffffffff1673ffffffffffffffffffffffffffffffffffffffff1681526020019081526020015f205460048190555064e8d4a510006006805490506108b0919061165b565b60025f8282546108c0919061169c565b9250508190555060065f6108d491906111a3565b610708426108e2919061169c565b5f8190555050505050565b6060600680548060200260200160405190810160405280929190818152602001828054801561096e57602002820191905f5260205f20905b815f9054906101000a900473ffffffffffffffffffffffffffffffffffffffff1673ffffffffffffffffffffffffffffffffffffffff1681526020019060010190808311610925575b5050505050905090565b60068181548110610987575f80fd5b905f5260205f20015f915054906101000a900473ffffffffffffffffffffffffffffffffffffffff1681565b64e8d4a5100081565b6005602052805f5260405f205f915090505481565b60025481565b6109df610c66565b610a1e576040517f08c379a0000000000000000000000000000000000000000000000000000000008152600401610a1590611719565b60405180910390fd5b5f3390505f60055f8373ffffffffffffffffffffffffffffffffffffffff1673ffffffffffffffffffffffffffffffffffffffff1681526020019081526020015f205490505f60055f8473ffffffffffffffffffffffffffffffffffffffff1673ffffffffffffffffffffffffffffffffffffffff1681526020019081526020015f20819055508173ffffffffffffffffffffffffffffffffffffffff166108fc8290811502906040515f60405180830381858888f19350505050158015610ae8573d5f5f3e3d5ffd5b505050565b5f6509184e72a00034610b0091906115fe565b14610b106509184e72a000610f88565b604051602001610b2091906117d5565b60405160208183030381529060405290610b70576040517f08c379a0000000000000000000000000000000000000000000000000000000008152600401610b679190611851565b60405180910390fd5b505f6509184e72a00034610b849190611871565b9050610b8e610c4e565b811115610bd0576040517f08c379a0000000000000000000000000000000000000000000000000000000008152600401610bc7906118eb565b60405180910390fd5b5f5f90505b81811015610c4a57600633908060018154018082558091505060019003905f5260205f20015f9091909190916101000a81548173ffffffffffffffffffffffffffffffffffffffff021916908373ffffffffffffffffffffffffffffffffffffffff1602179055508080600101915050610bd5565b5050565b5f600680549050600a610c61919061152a565b905090565b5f5f60055f3373ffffffffffffffffffffffffffffffffffffffff1673ffffffffffffffffffffffffffffffffffffffff1681526020019081526020015f205411905090565b600a81565b5f54421015610cf5576040517f08c379a0000000000000000000000000000000000000000000000000000000008152600401610cec90611953565b60405180910390fd5b5f5f90505b600680549050811015610df8575f60068281548110610d1c57610d1b61162e565b5b905f5260205f20015f9054906101000a900473ffffffffffffffffffffffffffffffffffffffff1690505f60068381548110610d5b57610d5a61162e565b5b905f5260205f20015f6101000a81548173ffffffffffffffffffffffffffffffffffffffff021916908373ffffffffffffffffffffffffffffffffffffffff1602179055508073ffffffffffffffffffffffffffffffffffffffff166108fc6509184e72a00090811502906040515f60405180830381858888f19350505050158015610de9573d5f5f3e3d5ffd5b50508080600101915050610cfa565b5060065f610e0691906111a3565b565b5f6509184e72a000600680549050610e20919061165b565b905090565b5f60055f8373ffffffffffffffffffffffffffffffffffffffff1673ffffffffffffffffffffffffffffffffffffffff1681526020019081526020015f20549050919050565b60015f9054906101000a900473ffffffffffffffffffffffffffffffffffffffff1673ffffffffffffffffffffffffffffffffffffffff163373ffffffffffffffffffffffffffffffffffffffff1614610efa576040517f08c379a0000000000000000000000000000000000000000000000000000000008152600401610ef190611477565b60405180910390fd5b5f60068054905014610f41576040517f08c379a0000000000000000000000000000000000000000000000000000000008152600401610f38906119e1565b60405180910390fd5b60065f610f4e91906111a3565b61070842610f5c919061169c565b5f81905550565b60035f9054906101000a900473ffffffffffffffffffffffffffffffffffffffff1681565b60605f6001610f9684611052565b0190505f8167ffffffffffffffff811115610fb457610fb36119ff565b5b6040519080825280601f01601f191660200182016040528015610fe65781602001600182028036833780820191505090505b5090505f82602001820190505b600115611047578080600190039150507f3031323334353637383961626364656600000000000000000000000000000000600a86061a8153600a858161103c5761103b6115d1565b5b0494505f8503610ff3575b819350505050919050565b5f5f5f90507a184f03e93ff9f4daa797ed6e38ed64bf6a1f01000000000000000083106110ae577a184f03e93ff9f4daa797ed6e38ed64bf6a1f01000000000000000083816110a4576110a36115d1565b5b0492506040810190505b6d04ee2d6d415b85acef810000000083106110eb576d04ee2d6d415b85acef810000000083816110e1576110e06115d1565b5b0492506020810190505b662386f26fc10000831061111a57662386f26fc1000083816111105761110f6115d1565b5b0492506010810190505b6305f5e1008310611143576305f5e1008381611139576111386115d1565b5b0492506008810190505b612710831061116857612710838161115e5761115d6115d1565b5b0492506004810190505b6064831061118b5760648381611181576111806115d1565b5b0492506002810190505b600a831061119a576001810190505b80915050919050565b5080545f8255905f5260205f20908101906111be91906111c1565b50565b5b808211156111d8575f815f9055506001016111c2565b5090565b5f819050919050565b6111ee816111dc565b82525050565b5f6020820190506112075f8301846111e5565b92915050565b5f73ffffffffffffffffffffffffffffffffffffffff82169050919050565b5f6112368261120d565b9050919050565b6112468161122c565b82525050565b5f60208201905061125f5f83018461123d565b92915050565b5f81519050919050565b5f82825260208201905092915050565b5f819050602082019050919050565b6112978161122c565b82525050565b5f6112a8838361128e565b60208301905092915050565b5f602082019050919050565b5f6112ca82611265565b6112d4818561126f565b93506112df8361127f565b805f5b8381101561130f5781516112f6888261129d565b9750611301836112b4565b9250506001810190506112e2565b5085935050505092915050565b5f6020820190508181035f83015261133481846112c0565b905092915050565b5f5ffd5b611349816111dc565b8114611353575f5ffd5b50565b5f8135905061136481611340565b92915050565b5f6020828403121561137f5761137e61133c565b5b5f61138c84828501611356565b91505092915050565b61139e8161122c565b81146113a8575f5ffd5b50565b5f813590506113b981611395565b92915050565b5f602082840312156113d4576113d361133c565b5b5f6113e1848285016113ab565b91505092915050565b5f8115159050919050565b6113fe816113ea565b82525050565b5f6020820190506114175f8301846113f5565b92915050565b5f82825260208201905092915050565b7f43616c6c6572206973206e6f74204c6f7474657279204f70657261746f7200005f82015250565b5f611461601e8361141d565b915061146c8261142d565b602082019050919050565b5f6020820190508181035f83015261148e81611455565b9050919050565b7f4e6f207469636b657473207765726520707572636861736564000000000000005f82015250565b5f6114c960198361141d565b91506114d482611495565b602082019050919050565b5f6020820190508181035f8301526114f6816114bd565b9050919050565b7f4e487b71000000000000000000000000000000000000000000000000000000005f52601160045260245ffd5b5f611534826111dc565b915061153f836111dc565b9250828203905081811115611557576115566114fd565b5b92915050565b5f819050919050565b611577611572826111dc565b61155d565b82525050565b5f819050919050565b5f819050919050565b6115a061159b8261157d565b611586565b82525050565b5f6115b18285611566565b6020820191506115c1828461158f565b6020820191508190509392505050565b7f4e487b71000000000000000000000000000000000000000000000000000000005f52601260045260245ffd5b5f611608826111dc565b9150611613836111dc565b925082611623576116226115d1565b5b828206905092915050565b7f4e487b71000000000000000000000000000000000000000000000000000000005f52603260045260245ffd5b5f611665826111dc565b9150611670836111dc565b925082820261167e816111dc565b91508282048414831517611695576116946114fd565b5b5092915050565b5f6116a6826111dc565b91506116b1836111dc565b92508282019050808211156116c9576116c86114fd565b5b92915050565b7f43616c6c6572206973206e6f74207468652077696e6e657200000000000000005f82015250565b5f61170360188361141d565b915061170e826116cf565b602082019050919050565b5f6020820190508181035f830152611730816116f7565b9050919050565b7f7468652076616c7565206d757374206265206d756c7469706c65206f66200000815250565b5f81519050919050565b5f81905092915050565b8281835e5f83830152505050565b5f6117898261175d565b6117938185611767565b93506117a3818560208601611771565b80840191505092915050565b7f2045746865720000000000000000000000000000000000000000000000000000815250565b5f6117df82611737565b601e820191506117ef828461177f565b91506117fa826117af565b60068201915081905092915050565b5f601f19601f8301169050919050565b5f6118238261175d565b61182d818561141d565b935061183d818560208601611771565b61184681611809565b840191505092915050565b5f6020820190508181035f8301526118698184611819565b905092915050565b5f61187b826111dc565b9150611886836111dc565b925082611896576118956115d1565b5b828204905092915050565b7f4e6f7420656e6f756768207469636b65747320617661696c61626c652e0000005f82015250565b5f6118d5601d8361141d565b91506118e0826118a1565b602082019050919050565b5f6020820190508181035f830152611902816118c9565b9050919050565b7f746865206c6f7474657279206e6f7420657870697265642079657400000000005f82015250565b5f61193d601b8361141d565b915061194882611909565b602082019050919050565b5f6020820190508181035f83015261196a81611931565b9050919050565b7f43616e6e6f7420526573746172742044726177206173204472617720697320695f8201527f6e20706c61790000000000000000000000000000000000000000000000000000602082015250565b5f6119cb60268361141d565b91506119d682611971565b604082019050919050565b5f6020820190508181035f8301526119f8816119bf565b9050919050565b7f4e487b71000000000000000000000000000000000000000000000000000000005f52604160045260245ffdfea2646970667358221220ac850311184b0d23c6434e082c7b9a4b6b6102a3f523b908591fdba1701392a464736f6c634300081b0033",
  "linkReferences": {},
  "deployedLinkReferences": {}
}