{
  "_format": "hh-sol-artifact-1",
  "contractName": "Lottery",
  "sourceName": "contracts/Lottery.sol",
  "abi": [
    {
      "inputs": [],
      "stateMutability": "nonpayable",
      "type": "constructor"
    },
    {
      "inputs": [],
      "name": "BuyTicket",
      "outputs": [],
      "stateMutability": "payable",
      "type": "function"
    },
    {
      "inputs": [],
      "name": "CurrentWinningReward",
      "outputs": [
        {
          "internalType": "uint256",
          "name": "",
          "type": "uint256"
        }
      ],
      "stateMutability": "view",
      "type": "function"
    },
    {
      "inputs": [],
      "name": "Dealer",
      "outputs": [
        {
          "internalType": "address",
          "name": "",
          "type": "address"
        }
      ],
      "stateMutability": "view",
      "type": "function"
    },
    {
      "inputs": [],
      "name": "DealerTotalCommission",
      "outputs": [
        {
          "internalType": "uint256",
          "name": "",
          "type": "uint256"
        }
      ],
      "stateMutability": "view",
      "type": "function"
    },
    {
      "inputs": [],
      "name": "DrawWinnerTicket",
      "outputs": [],
      "stateMutability": "nonpayable",
      "type": "function"
    },
    {
      "inputs": [],
      "name": "IsWinner",
      "outputs": [
        {
          "internalType": "bool",
          "name": "",
          "type": "bool"
        }
      ],
      "stateMutability": "view",
      "type": "function"
    },
    {
      "inputs": [],
      "name": "RemainingTickets",
      "outputs": [
        {
          "internalType": "uint256",
          "name": "",
          "type": "uint256"
        }
      ],
      "stateMutability": "view",
      "type": "function"
    },
    {
      "inputs": [],
      "name": "WithdrawCommission",
      "outputs": [],
      "stateMutability": "nonpayable",
      "type": "function"
    },
    {
      "inputs": [],
      "name": "WithdrawWinnings",
      "outputs": [],
      "stateMutability": "nonpayable",
      "type": "function"
    },
    {
      "inputs": [],
      "name": "duration",
      "outputs": [
        {
          "internalType": "uint256",
          "name": "",
          "type": "uint256"
        }
      ],
      "stateMutability": "view",
      "type": "function"
    },
    {
      "inputs": [],
      "name": "expiration",
      "outputs": [
        {
          "internalType": "uint256",
          "name": "",
          "type": "uint256"
        }
      ],
      "stateMutability": "view",
      "type": "function"
    },
    {
      "inputs": [],
      "name": "getTickets",
      "outputs": [
        {
          "internalType": "address[]",
          "name": "",
          "type": "address[]"
        }
      ],
      "stateMutability": "view",
      "type": "function"
    },
    {
      "inputs": [
        {
          "internalType": "address",
          "name": "addr",
          "type": "address"
        }
      ],
      "name": "getWinningsForAddress",
      "outputs": [
        {
          "internalType": "uint256",
          "name": "",
          "type": "uint256"
        }
      ],
      "stateMutability": "view",
      "type": "function"
    },
    {
      "inputs": [
        {
          "internalType": "address",
          "name": "",
          "type": "address"
        }
      ],
      "name": "hasTicket",
      "outputs": [
        {
          "internalType": "bool",
          "name": "",
          "type": "bool"
        }
      ],
      "stateMutability": "view",
      "type": "function"
    },
    {
      "inputs": [],
      "name": "lastWinner",
      "outputs": [
        {
          "internalType": "address",
          "name": "",
          "type": "address"
        }
      ],
      "stateMutability": "view",
      "type": "function"
    },
    {
      "inputs": [],
      "name": "lastWinnerAmount",
      "outputs": [
        {
          "internalType": "uint256",
          "name": "",
          "type": "uint256"
        }
      ],
      "stateMutability": "view",
      "type": "function"
    },
    {
      "inputs": [],
      "name": "maxTickets",
      "outputs": [
        {
          "internalType": "uint256",
          "name": "",
          "type": "uint256"
        }
      ],
      "stateMutability": "view",
      "type": "function"
    },
    {
      "inputs": [],
      "name": "restartDraw",
      "outputs": [],
      "stateMutability": "nonpayable",
      "type": "function"
    },
    {
      "inputs": [],
      "name": "ticketPrice",
      "outputs": [
        {
          "internalType": "uint256",
          "name": "",
          "type": "uint256"
        }
      ],
      "stateMutability": "view",
      "type": "function"
    },
    {
      "inputs": [
        {
          "internalType": "uint256",
          "name": "",
          "type": "uint256"
        }
      ],
      "name": "tickets",
      "outputs": [
        {
          "internalType": "address",
          "name": "",
          "type": "address"
        }
      ],
      "stateMutability": "view",
      "type": "function"
    },
    {
      "inputs": [
        {
          "internalType": "address",
          "name": "",
          "type": "address"
        }
      ],
      "name": "winners",
      "outputs": [
        {
          "internalType": "uint256",
          "name": "",
          "type": "uint256"
        }
      ],
      "stateMutability": "view",
      "type": "function"
    }
  ],
  "bytecode": "0x6080604052348015600e575f5ffd5b503360015f6101000a81548173ffffffffffffffffffffffffffffffffffffffff021916908373ffffffffffffffffffffffffffffffffffffffff16021790555061070842605b9190609a565b5f8190555060c6565b5f819050919050565b7f4e487b71000000000000000000000000000000000000000000000000000000005f52601160045260245ffd5b5f60a2826064565b915060ab836064565b925082820190508082111560c05760bf606d565b5b92915050565b6119d8806100d35f395ff3fe608060405260043610610129575f3560e01c80636fd803a7116100aa5780639b8947031161006e5780639b8947031461036b578063c6944fa014610395578063dd64e534146103bf578063e2142fde146103fb578063f261326914610437578063fe1881841461044d57610129565b80636fd803a7146102cd57806371827b7b146102f7578063761aef781461030d57806393a563b51461031757806396c85ef31461034157610129565b80634665096d116100f15780634665096d146101eb5780634788af7c146102155780634ed026221461022b57806350b44712146102555780636bd5450a1461029157610129565b806306f7f3bf1461012d5780630fb5a6b4146101575780631209b1f614610181578063173a0615146101ab57806335580df2146101d5575b5f5ffd5b348015610138575f5ffd5b50610141610477565b60405161014e919061116a565b60405180910390f35b348015610162575f5ffd5b5061016b61047d565b604051610178919061116a565b60405180910390f35b34801561018c575f5ffd5b50610195610483565b6040516101a2919061116a565b60405180910390f35b3480156101b6575f5ffd5b506101bf61048e565b6040516101cc91906111c2565b60405180910390f35b3480156101e0575f5ffd5b506101e96104b3565b005b3480156101f6575f5ffd5b506101ff61059b565b60405161020c919061116a565b60405180910390f35b348015610220575f5ffd5b506102296105a0565b005b348015610236575f5ffd5b5061023f6108e4565b60405161024c9190611292565b60405180910390f35b348015610260575f5ffd5b5061027b600480360381019061027691906112e0565b61096f565b60405161028891906111c2565b60405180910390f35b34801561029c575f5ffd5b506102b760048036038101906102b29190611335565b6109aa565b6040516102c4919061116a565b60405180910390f35b3480156102d8575f5ffd5b506102e16109bf565b6040516102ee919061116a565b60405180910390f35b348015610302575f5ffd5b5061030b6109c5565b005b610315610adb565b005b348015610322575f5ffd5b5061032b610ce5565b604051610338919061116a565b60405180910390f35b34801561034c575f5ffd5b50610355610cfd565b604051610362919061137a565b60405180910390f35b348015610376575f5ffd5b5061037f610d43565b60405161038c919061116a565b60405180910390f35b3480156103a0575f5ffd5b506103a9610d48565b6040516103b6919061116a565b60405180910390f35b3480156103ca575f5ffd5b506103e560048036038101906103e09190611335565b610d7e565b6040516103f2919061116a565b60405180910390f35b348015610406575f5ffd5b50610421600480360381019061041c9190611335565b610dc4565b60405161042e919061137a565b60405180910390f35b348015610442575f5ffd5b5061044b610de1565b005b348015610458575f5ffd5b50610461610ed9565b60405161046e91906111c2565b60405180910390f35b60045481565b61070881565b66038d7ea4c6800081565b60015f9054906101000a900473ffffffffffffffffffffffffffffffffffffffff1681565b60015f9054906101000a900473ffffffffffffffffffffffffffffffffffffffff1673ffffffffffffffffffffffffffffffffffffffff163373ffffffffffffffffffffffffffffffffffffffff1614610542576040517f08c379a0000000000000000000000000000000000000000000000000000000008152600401610539906113ed565b60405180910390fd5b5f3390505f60025490505f6002819055508173ffffffffffffffffffffffffffffffffffffffff166108fc8290811502906040515f60405180830381858888f19350505050158015610596573d5f5f3e3d5ffd5b505050565b5f5481565b60015f9054906101000a900473ffffffffffffffffffffffffffffffffffffffff1673ffffffffffffffffffffffffffffffffffffffff163373ffffffffffffffffffffffffffffffffffffffff161461062f576040517f08c379a0000000000000000000000000000000000000000000000000000000008152600401610626906113ed565b60405180910390fd5b5f60078054905011610676576040517f08c379a000000000000000000000000000000000000000000000000000000000815260040161066d90611455565b60405180910390fd5b5f6007805490504361068891906114a0565b4090505f428260405160200161069f92919061151c565b604051602081830303815290604052805190602001205f1c90505f600780549050826106cb9190611574565b90505f600782815481106106e2576106e16115a4565b5b905f5260205f20015f9054906101000a900473ffffffffffffffffffffffffffffffffffffffff1690508060035f6101000a81548173ffffffffffffffffffffffffffffffffffffffff021916908373ffffffffffffffffffffffffffffffffffffffff1602179055505f66038d7ea4c6800060078054905061076591906115d1565b90505f6064605a8361077791906115d1565b6107819190611612565b90508060065f8573ffffffffffffffffffffffffffffffffffffffff1673ffffffffffffffffffffffffffffffffffffffff1681526020019081526020015f205f8282546107cf9190611642565b92505081905550806004819055506064600a836107ec91906115d1565b6107f69190611612565b60025f8282546108069190611642565b925050819055505f5f90505b6007805490508110156108bb575f60055f60078481548110610837576108366115a4565b5b905f5260205f20015f9054906101000a900473ffffffffffffffffffffffffffffffffffffffff1673ffffffffffffffffffffffffffffffffffffffff1673ffffffffffffffffffffffffffffffffffffffff1681526020019081526020015f205f6101000a81548160ff0219169083151502179055508080600101915050610812565b5060075f6108c99190611119565b610708426108d79190611642565b5f81905550505050505050565b6060600780548060200260200160405190810160405280929190818152602001828054801561096557602002820191905f5260205f20905b815f9054906101000a900473ffffffffffffffffffffffffffffffffffffffff1673ffffffffffffffffffffffffffffffffffffffff168152602001906001019080831161091c575b5050505050905090565b6007818154811061097e575f80fd5b905f5260205f20015f915054906101000a900473ffffffffffffffffffffffffffffffffffffffff1681565b6006602052805f5260405f205f915090505481565b60025481565b6109cd610cfd565b610a0c576040517f08c379a0000000000000000000000000000000000000000000000000000000008152600401610a03906116bf565b60405180910390fd5b5f3390505f60065f8373ffffffffffffffffffffffffffffffffffffffff1673ffffffffffffffffffffffffffffffffffffffff1681526020019081526020015f205490505f60065f8473ffffffffffffffffffffffffffffffffffffffff1673ffffffffffffffffffffffffffffffffffffffff1681526020019081526020015f20819055508173ffffffffffffffffffffffffffffffffffffffff166108fc8290811502906040515f60405180830381858888f19350505050158015610ad6573d5f5f3e3d5ffd5b505050565b5f610ae4610ce5565b90505f8111610b28576040517f08c379a0000000000000000000000000000000000000000000000000000000008152600401610b1f90611727565b60405180910390fd5b60055f3373ffffffffffffffffffffffffffffffffffffffff1673ffffffffffffffffffffffffffffffffffffffff1681526020019081526020015f205f9054906101000a900460ff1615610bb2576040517f08c379a0000000000000000000000000000000000000000000000000000000008152600401610ba99061178f565b60405180910390fd5b66038d7ea4c680003414610bcc66038d7ea4c68000610efe565b604051602001610bdc919061184b565b60405160208183030381529060405290610c2c576040517f08c379a0000000000000000000000000000000000000000000000000000000008152600401610c2391906118c7565b60405180910390fd5b50600160055f3373ffffffffffffffffffffffffffffffffffffffff1673ffffffffffffffffffffffffffffffffffffffff1681526020019081526020015f205f6101000a81548160ff021916908315150217905550600733908060018154018082558091505060019003905f5260205f20015f9091909190916101000a81548173ffffffffffffffffffffffffffffffffffffffff021916908373ffffffffffffffffffffffffffffffffffffffff16021790555050565b5f6007805490506064610cf891906114a0565b905090565b5f5f60065f3373ffffffffffffffffffffffffffffffffffffffff1673ffffffffffffffffffffffffffffffffffffffff1681526020019081526020015f205411905090565b606481565b5f6064605a66038d7ea4c68000600780549050610d6591906115d1565b610d6f91906115d1565b610d799190611612565b905090565b5f60065f8373ffffffffffffffffffffffffffffffffffffffff1673ffffffffffffffffffffffffffffffffffffffff1681526020019081526020015f20549050919050565b6005602052805f5260405f205f915054906101000a900460ff1681565b60015f9054906101000a900473ffffffffffffffffffffffffffffffffffffffff1673ffffffffffffffffffffffffffffffffffffffff163373ffffffffffffffffffffffffffffffffffffffff1614610e70576040517f08c379a0000000000000000000000000000000000000000000000000000000008152600401610e67906113ed565b60405180910390fd5b5f60078054905014610eb7576040517f08c379a0000000000000000000000000000000000000000000000000000000008152600401610eae90611957565b60405180910390fd5b60075f610ec49190611119565b61070842610ed29190611642565b5f81905550565b60035f9054906101000a900473ffffffffffffffffffffffffffffffffffffffff1681565b60605f6001610f0c84610fc8565b0190505f8167ffffffffffffffff811115610f2a57610f29611975565b5b6040519080825280601f01601f191660200182016040528015610f5c5781602001600182028036833780820191505090505b5090505f82602001820190505b600115610fbd578080600190039150507f3031323334353637383961626364656600000000000000000000000000000000600a86061a8153600a8581610fb257610fb1611547565b5b0494505f8503610f69575b819350505050919050565b5f5f5f90507a184f03e93ff9f4daa797ed6e38ed64bf6a1f0100000000000000008310611024577a184f03e93ff9f4daa797ed6e38ed64bf6a1f010000000000000000838161101a57611019611547565b5b0492506040810190505b6d04ee2d6d415b85acef81000000008310611061576d04ee2d6d415b85acef8100000000838161105757611056611547565b5b0492506020810190505b662386f26fc10000831061109057662386f26fc10000838161108657611085611547565b5b0492506010810190505b6305f5e10083106110b9576305f5e10083816110af576110ae611547565b5b0492506008810190505b61271083106110de5761271083816110d4576110d3611547565b5b0492506004810190505b6064831061110157606483816110f7576110f6611547565b5b0492506002810190505b600a8310611110576001810190505b80915050919050565b5080545f8255905f5260205f20908101906111349190611137565b50565b5b8082111561114e575f815f905550600101611138565b5090565b5f819050919050565b61116481611152565b82525050565b5f60208201905061117d5f83018461115b565b92915050565b5f73ffffffffffffffffffffffffffffffffffffffff82169050919050565b5f6111ac82611183565b9050919050565b6111bc816111a2565b82525050565b5f6020820190506111d55f8301846111b3565b92915050565b5f81519050919050565b5f82825260208201905092915050565b5f819050602082019050919050565b61120d816111a2565b82525050565b5f61121e8383611204565b60208301905092915050565b5f602082019050919050565b5f611240826111db565b61124a81856111e5565b9350611255836111f5565b805f5b8381101561128557815161126c8882611213565b97506112778361122a565b925050600181019050611258565b5085935050505092915050565b5f6020820190508181035f8301526112aa8184611236565b905092915050565b5f5ffd5b6112bf81611152565b81146112c9575f5ffd5b50565b5f813590506112da816112b6565b92915050565b5f602082840312156112f5576112f46112b2565b5b5f611302848285016112cc565b91505092915050565b611314816111a2565b811461131e575f5ffd5b50565b5f8135905061132f8161130b565b92915050565b5f6020828403121561134a576113496112b2565b5b5f61135784828501611321565b91505092915050565b5f8115159050919050565b61137481611360565b82525050565b5f60208201905061138d5f83018461136b565b92915050565b5f82825260208201905092915050565b7f43616c6c6572206973206e6f74204c6f7474657279204f70657261746f7200005f82015250565b5f6113d7601e83611393565b91506113e2826113a3565b602082019050919050565b5f6020820190508181035f830152611404816113cb565b9050919050565b7f4e6f207469636b657473207765726520707572636861736564000000000000005f82015250565b5f61143f601983611393565b915061144a8261140b565b602082019050919050565b5f6020820190508181035f83015261146c81611433565b9050919050565b7f4e487b71000000000000000000000000000000000000000000000000000000005f52601160045260245ffd5b5f6114aa82611152565b91506114b583611152565b92508282039050818111156114cd576114cc611473565b5b92915050565b5f819050919050565b6114ed6114e882611152565b6114d3565b82525050565b5f819050919050565b5f819050919050565b611516611511826114f3565b6114fc565b82525050565b5f61152782856114dc565b6020820191506115378284611505565b6020820191508190509392505050565b7f4e487b71000000000000000000000000000000000000000000000000000000005f52601260045260245ffd5b5f61157e82611152565b915061158983611152565b92508261159957611598611547565b5b828206905092915050565b7f4e487b71000000000000000000000000000000000000000000000000000000005f52603260045260245ffd5b5f6115db82611152565b91506115e683611152565b92508282026115f481611152565b9150828204841483151761160b5761160a611473565b5b5092915050565b5f61161c82611152565b915061162783611152565b92508261163757611636611547565b5b828204905092915050565b5f61164c82611152565b915061165783611152565b925082820190508082111561166f5761166e611473565b5b92915050565b7f43616c6c6572206973206e6f74207468652077696e6e657200000000000000005f82015250565b5f6116a9601883611393565b91506116b482611675565b602082019050919050565b5f6020820190508181035f8301526116d68161169d565b9050919050565b7f546865726520617265206e6f206d6f7265205469636b657473000000000000005f82015250565b5f611711601983611393565b915061171c826116dd565b602082019050919050565b5f6020820190508181035f83015261173e81611705565b9050919050565b7f596f752063616e206f6e6c79206275792031205469636b6574000000000000005f82015250565b5f611779601983611393565b915061178482611745565b602082019050919050565b5f6020820190508181035f8301526117a68161176d565b9050919050565b7f5468652076616c7565206d7573742062652065786163746c7900000000000000815250565b5f81519050919050565b5f81905092915050565b8281835e5f83830152505050565b5f6117ff826117d3565b61180981856117dd565b93506118198185602086016117e7565b80840191505092915050565b7f2045746865720000000000000000000000000000000000000000000000000000815250565b5f611855826117ad565b60198201915061186582846117f5565b915061187082611825565b60068201915081905092915050565b5f601f19601f8301169050919050565b5f611899826117d3565b6118a38185611393565b93506118b38185602086016117e7565b6118bc8161187f565b840191505092915050565b5f6020820190508181035f8301526118df818461188f565b905092915050565b7f43616e6e6f7420526573746172742044726177206173204472617720697320695f8201527f6e20706c61790000000000000000000000000000000000000000000000000000602082015250565b5f611941602683611393565b915061194c826118e7565b604082019050919050565b5f6020820190508181035f83015261196e81611935565b9050919050565b7f4e487b71000000000000000000000000000000000000000000000000000000005f52604160045260245ffdfea26469706673582212204bd1622dea6c60b9c6db43870dc9aadc6762d2f96987207943374f7a67ec736b64736f6c634300081b0033",
  "linkReferences": {},
  "deployedLinkReferences": {}
}